02RETORNO01COBRANCA       00000000000000291640INST BRAS DE MED DE REABILIT I237BRADESCO       1803130160000001798                                                                                                                                                                                                                                                                          180313         000001
10242365445000115000000200447009482090010000000000000000078806000000000000007880630000000000000000000000000210180313000005354600000000000000788063150113000000005890023700000  000000000000000000000000000000000000000000000000000000000000000000000000000000000000000000000000000000000000000000000                          1600000000                                                                  000002
10242365445000115000000200447009482090010000000000000000078807000000000000007880710000000000000000000000000210180313000005354700000000000000788071150113000000004123023700000  000000000000000000000000000000000000000000000000000000000000000000000000000000000000000000000000000000000000000000000                          1600000000                                                                  000003
102423654450001150000002004470094820900100000000000000000788080000000000000078808P000000000000000000000000021018031300000535480000000000000078808P150113000000004417523700000  000000000000000000000000000000000000000000000000000000000000000000000000000000000000000000000000000000000000000000000                          1600000000                                                                  000004
10242365445000115000000200447009482090010000000000000000078810000000000000007881010000000000000000000000000210180313000005355000000000000000788101150113000000004712023700000  000000000000000000000000000000000000000000000000000000000000000000000000000000000000000000000000000000000000000000000                          1600000000                                                                  000005
10242365445000115000000200447009482090010000000000000000078812000000000000007881280000000000000000000000000210180313000005355200000000000000788128150113000000005890023700000  000000000000000000000000000000000000000000000000000000000000000000000000000000000000000000000000000000000000000000000                          1600000000                                                                  000006
10242365445000115000000200447009482090010000000000000000078813000000000000007881360000000000000000000000000210180313000005355300000000000000788136150113000000005890023700000  000000000000000000000000000000000000000000000000000000000000000000000000000000000000000000000000000000000000000000000                          1600000000                                                                  000007
10242365445000115000000200447009482090010000000000000000078814000000000000007881440000000000000000000000000210180313000005355400000000000000788144150113000000004123023700000  000000000000000000000000000000000000000000000000000000000000000000000000000000000000000000000000000000000000000000000                          1600000000                                                                  000008
10242365445000115000000200447009482090010000000000000000078818000000000000007881870000000000000000000000000210180313000005355800000000000000788187150113000000007910023700000  000000000000000000000000000000000000000000000000000000000000000000000000000000000000000000000000000000000000000000000                          1600000000                                                                  000009
10242365445000115000000200447009482090010000000000000000078819000000000000007881950000000000000000000000000210180313000005355900000000000000788195150113000000007910023700000  000000000000000000000000000000000000000000000000000000000000000000000000000000000000000000000000000000000000000000000                          1600000000                                                                  000010
102423654450001150000002004470094820900100000000000000000788250000000000000078825P000000000000000000000000021018031300000535650000000000000078825P150113000000007910023700000  000000000000000000000000000000000000000000000000000000000000000000000000000000000000000000000000000000000000000000000                          1600000000                                                                  000011
10242365445000115000000200447009482090010000000000000000078828000000000000007882840000000000000000000000000210180313000005356800000000000000788284150113000000007910023700000  000000000000000000000000000000000000000000000000000000000000000000000000000000000000000000000000000000000000000000000                          1600000000                                                                  000012
10242365445000115000000200447009482090010000000000000000078830000000000000007883060000000000000000000000000210180313000005357000000000000000788306150113000000007910023700000  000000000000000000000000000000000000000000000000000000000000000000000000000000000000000000000000000000000000000000000                          1600000000                                                                  000013
10242365445000115000000200447009482090010000000000000000078832000000000000007883220000000000000000000000000210180313000005357200000000000000788322150113000000007910023700000  000000000000000000000000000000000000000000000000000000000000000000000000000000000000000000000000000000000000000000000                          1600000000                                                                  000014
10242365445000115000000200447009482090010000000000000000078837000000000000007883730000000000000000000000000210180313000005357700000000000000788373150113000000005160023700000  000000000000000000000000000000000000000000000000000000000000000000000000000000000000000000000000000000000000000000000                          1600000000                                                                  000015
10242365445000115000000200447009482090010000000000000000078840000000000000007884030000000000000000000000000210180313000005358000000000000000788403150113000000005160023700000  000000000000000000000000000000000000000000000000000000000000000000000000000000000000000000000000000000000000000000000                          1600000000                                                                  000016
102423654450001150000002004470094820900100000000000000000788420000000000000078842P000000000000000000000000021018031300000535820000000000000078842P150113000000005160023700000  000000000000000000000000000000000000000000000000000000000000000000000000000000000000000000000000000000000000000000000                          1600000000                                                                  000017
10242365445000115000000200447009482090010000000000000000078843000000000000007884380000000000000000000000000210180313000005358300000000000000788438150113000000005160023700000  000000000000000000000000000000000000000000000000000000000000000000000000000000000000000000000000000000000000000000000                          1600000000                                                                  000018
10242365445000115000000200447009482090010000000000000000078845000000000000007884540000000000000000000000000210180313000005358500000000000000788454150113000000005160023700000  000000000000000000000000000000000000000000000000000000000000000000000000000000000000000000000000000000000000000000000                          1600000000                                                                  000019
10242365445000115000000200447009482090010000000000000000078855000000000000007885510000000000000000000000000210180313000005359500000000000000788551150113000000007910023700000  000000000000000000000000000000000000000000000000000000000000000000000000000000000000000000000000000000000000000000000                          1600000000                                                                  000020
10242365445000115000000200447009482090010000000000000000078860000000000000007886080000000000000000000000000210180313000005360000000000000000788608150113000000005160023700000  000000000000000000000000000000000000000000000000000000000000000000000000000000000000000000000000000000000000000000000                          1600000000                                                                  000021
10242365445000115000000200447009482090010000000000000000078861000000000000007886160000000000000000000000000210180313000005360100000000000000788616150113000000005160023700000  000000000000000000000000000000000000000000000000000000000000000000000000000000000000000000000000000000000000000000000                          1600000000                                                                  000022
10242365445000115000000200447009482090010000000000000000078868000000000000007886830000000000000000000000000210180313000005360700000000000000788683150113000000007119023700000  000000000000000000000000000000000000000000000000000000000000000000000000000000000000000000000000000000000000000000000                          1600000000                                                                  000023
10242365445000115000000200447009482090010000000000000000078870000000000000007887050000000000000000000000000210180313000005360900000000000000788705150113000000007910023700000  000000000000000000000000000000000000000000000000000000000000000000000000000000000000000000000000000000000000000000000                          1600000000                                                                  000024
10242365445000115000000200447009482090010000000000000000078871000000000000007887130000000000000000000000000210180313000005361000000000000000788713150113000000003164023700000  000000000000000000000000000000000000000000000000000000000000000000000000000000000000000000000000000000000000000000000                          1600000000                                                                  000025
102423654450001150000002004470094820900100000000000000000788730000000000000078873P000000000000000000000000021018031300000536120000000000000078873P150113000000003955023700000  000000000000000000000000000000000000000000000000000000000000000000000000000000000000000000000000000000000000000000000                          1600000000                                                                  000026
10242365445000115000000200447009482090010000000000000000078877000000000000007887720000000000000000000000000210180313000005361600000000000000788772150113000000004128023700000  000000000000000000000000000000000000000000000000000000000000000000000000000000000000000000000000000000000000000000000                          1600000000                                                                  000027
10242365445000115000000200447009482090010000000000000000078878000000000000007887800000000000000000000000000210180313000005361700000000000000788780150113000000004128023700000  000000000000000000000000000000000000000000000000000000000000000000000000000000000000000000000000000000000000000000000                          1600000000                                                                  000028
10242365445000115000000200447009482090010000000000000000078881000000000000007888100000000000000000000000000210180313000005362000000000000000788810150113000000004128023700000  000000000000000000000000000000000000000000000000000000000000000000000000000000000000000000000000000000000000000000000                          1600000000                                                                  000029
10242365445000115000000200447009482090010000000000000000078882000000000000007888290000000000000000000000000210180313000005362100000000000000788829150113000000005160023700000  000000000000000000000000000000000000000000000000000000000000000000000000000000000000000000000000000000000000000000000                          1600000000                                                                  000030
10242365445000115000000200447009482090010000000000000000078884000000000000007888450000000000000000000000000210180313000005362300000000000000788845150113000000002064023700000  000000000000000000000000000000000000000000000000000000000000000000000000000000000000000000000000000000000000000000000                          1600000000                                                                  000031
10242365445000115000000200447009482090010000000000000000078885000000000000007888530000000000000000000000000210180313000005362400000000000000788853150113000000004128023700000  000000000000000000000000000000000000000000000000000000000000000000000000000000000000000000000000000000000000000000000                          1600000000                                                                  000032
10242365445000115000000200447009482090010000000000000000078886000000000000007888610000000000000000000000000210180313000005362500000000000000788861150113000000005160023700000  000000000000000000000000000000000000000000000000000000000000000000000000000000000000000000000000000000000000000000000                          1600000000                                                                  000033
102423654450001150000002004470094820900100000000000000000788870000000000000078887P000000000000000000000000021018031300000536260000000000000078887P150113000000002064023700000  000000000000000000000000000000000000000000000000000000000000000000000000000000000000000000000000000000000000000000000                          1600000000                                                                  000034
10242365445000115000000200447009482090010000000000000000078891000000000000007889180000000000000000000000000210180313000005363000000000000000788918150113000000005160023700000  000000000000000000000000000000000000000000000000000000000000000000000000000000000000000000000000000000000000000000000                          1600000000                                                                  000035
10242365445000115000000200447009482090010000000000000000078892000000000000007889260000000000000000000000000210180313000005363100000000000000788926150113000000002064023700000  000000000000000000000000000000000000000000000000000000000000000000000000000000000000000000000000000000000000000000000                          1600000000                                                                  000036
10242365445000115000000200447009482090010000000000000000078894000000000000007889420000000000000000000000000210180313000005363300000000000000788942150113000000005160023700000  000000000000000000000000000000000000000000000000000000000000000000000000000000000000000000000000000000000000000000000                          1600000000                                                                  000037
10242365445000115000000200447009482090010000000000000000078895000000000000007889500000000000000000000000000210180313000005363400000000000000788950150113000000005160023700000  000000000000000000000000000000000000000000000000000000000000000000000000000000000000000000000000000000000000000000000                          1600000000                                                                  000038
10242365445000115000000200447009482090010000000000000000078896000000000000007889690000000000000000000000000210180313000005363500000000000000788969150113000000005160023700000  000000000000000000000000000000000000000000000000000000000000000000000000000000000000000000000000000000000000000000000                          1600000000                                                                  000039
10242365445000115000000200447009482090010000000000000000078897000000000000007889770000000000000000000000000210180313000005363600000000000000788977150113000000005160023700000  000000000000000000000000000000000000000000000000000000000000000000000000000000000000000000000000000000000000000000000                          1600000000                                                                  000040
10242365445000115000000200447009482090010000000000000000078899000000000000007889930000000000000000000000000210180313000005363800000000000000788993150113000000005160023700000  000000000000000000000000000000000000000000000000000000000000000000000000000000000000000000000000000000000000000000000                          1600000000                                                                  000041
10242365445000115000000200447009482090010000000000000000078900000000000000007890000000000000000000000000000210180313000005363900000000000000789000150113000000003096023700000  000000000000000000000000000000000000000000000000000000000000000000000000000000000000000000000000000000000000000000000                          1600000000                                                                  000042
10242365445000115000000200447009482090010000000000000000078901000000000000007890190000000000000000000000000210180313000005364000000000000000789019150113000000005160023700000  000000000000000000000000000000000000000000000000000000000000000000000000000000000000000000000000000000000000000000000                          1600000000                                                                  000043
10242365445000115000000200447009482090010000000000000000078903000000000000007890350000000000000000000000000210180313000005364200000000000000789035150113000000004128023700000  000000000000000000000000000000000000000000000000000000000000000000000000000000000000000000000000000000000000000000000                          1600000000                                                                  000044
10242365445000115000000200447009482090010000000000000000078904000000000000007890430000000000000000000000000210180313000005364300000000000000789043150113000000004128023700000  000000000000000000000000000000000000000000000000000000000000000000000000000000000000000000000000000000000000000000000                          1600000000                                                                  000045
10242365445000115000000200447009482090010000000000000000078905000000000000007890510000000000000000000000000210180313000005364400000000000000789051150113000000007119023700000  000000000000000000000000000000000000000000000000000000000000000000000000000000000000000000000000000000000000000000000                          1600000000                                                                  000046
10242365445000115000000200447009482090010000000000000000078907000000000000007890780000000000000000000000000210180313000005364600000000000000789078150113000000002373023700000  000000000000000000000000000000000000000000000000000000000000000000000000000000000000000000000000000000000000000000000                          1600000000                                                                  000047
10242365445000115000000200447009482090010000000000000000078908000000000000007890860000000000000000000000000210180313000005364700000000000000789086150113000000007910023700000  000000000000000000000000000000000000000000000000000000000000000000000000000000000000000000000000000000000000000000000                          1600000000                                                                  000048
10242365445000115000000200447009482090010000000000000000078910000000000000007891080000000000000000000000000210180313000005364900000000000000789108150113000000007119023700000  000000000000000000000000000000000000000000000000000000000000000000000000000000000000000000000000000000000000000000000                          1600000000                                                                  000049
10242365445000115000000200447009482090010000000000000000078921000000000000007892130000000000000000000000000210180313000005366000000000000000789213150113000000006328023700000  000000000000000000000000000000000000000000000000000000000000000000000000000000000000000000000000000000000000000000000                          1600000000                                                                  000050
10242365445000115000000200447009482090010000000000000000078922000000000000007892210000000000000000000000000210180313000005366100000000000000789221150113000000007910023700000  000000000000000000000000000000000000000000000000000000000000000000000000000000000000000000000000000000000000000000000                          1600000000                                                                  000051
10242365445000115000000200447009482090010000000000000000078924000000000000007892480000000000000000000000000210180313000005366300000000000000789248150113000000006328023700000  000000000000000000000000000000000000000000000000000000000000000000000000000000000000000000000000000000000000000000000                          1600000000                                                                  000052
10242365445000115000000200447009482090010000000000000000078925000000000000007892560000000000000000000000000210180313000005366400000000000000789256150113000000007910023700000  000000000000000000000000000000000000000000000000000000000000000000000000000000000000000000000000000000000000000000000                          1600000000                                                                  000053
10242365445000115000000200447009482090010000000000000000078927000000000000007892720000000000000000000000000210180313000005366600000000000000789272150113000000005537023700000  000000000000000000000000000000000000000000000000000000000000000000000000000000000000000000000000000000000000000000000                          1600000000                                                                  000054
10242365445000115000000200447009482090010000000000000000078929000000000000007892990000000000000000000000000210180313000005366800000000000000789299150113000000006328023700000  000000000000000000000000000000000000000000000000000000000000000000000000000000000000000000000000000000000000000000000                          1600000000                                                                  000055
10242365445000115000000200447009482090010000000000000000078933000000000000007893370000000000000000000000000210180313000005367200000000000000789337150113000000007910023700000  000000000000000000000000000000000000000000000000000000000000000000000000000000000000000000000000000000000000000000000                          1600000000                                                                  000056
10242365445000115000000200447009482090010000000000000000078938000000000000007893880000000000000000000000000210180313000005367700000000000000789388150113000000007119023700000  000000000000000000000000000000000000000000000000000000000000000000000000000000000000000000000000000000000000000000000                          1600000000                                                                  000057
10242365445000115000000200447009482090010000000000000000078944000000000000007894420000000000000000000000000210180313000005368300000000000000789442150113000000004712023700000  000000000000000000000000000000000000000000000000000000000000000000000000000000000000000000000000000000000000000000000                          1600000000                                                                  000058
10242365445000115000000200447009482090010000000000000000078949000000000000007894930000000000000000000000000210180313000005368800000000000000789493150113000000004712023700000  000000000000000000000000000000000000000000000000000000000000000000000000000000000000000000000000000000000000000000000                          1600000000                                                                  000059
10242365445000115000000200447009482090010000000000000000078955000000000000007895580000000000000000000000000210180313000005369400000000000000789558150113000000004123023700000  000000000000000000000000000000000000000000000000000000000000000000000000000000000000000000000000000000000000000000000                          1600000000                                                                  000060
10242365445000115000000200447009482090010000000000000000078960000000000000007896040000000000000000000000000210180313000005369900000000000000789604150113000000002784023700000  000000000000000000000000000000000000000000000000000000000000000000000000000000000000000000000000000000000000000000000                          1600000000                                                                  000061
102423654450001150000002004470094820900100000000000000000789680000000000000078968P000000000000000000000000021018031300000537070000000000000078968P150113000000008130023700000  000000000000000000000000000000000000000000000000000000000000000000000000000000000000000000000000000000000000000000000                          1600000000                                                                  000062
10242365445000115000000200447009482090010000000000000000078974000000000000007897440000000000000000000000000210180313000005371300000000000000789744150113000000008130023700000  000000000000000000000000000000000000000000000000000000000000000000000000000000000000000000000000000000000000000000000                          1600000000                                                                  000063
10242365445000115000000200447009482090010000000000000000078980000000000000007898090000000000000000000000000210180313000005371900000000000000789809150113000000008130023700000  000000000000000000000000000000000000000000000000000000000000000000000000000000000000000000000000000000000000000000000                          1600000000                                                                  000064
10242365445000115000000200447009482090010000000000000000078982000000000000007898250000000000000000000000000210180313000005372100000000000000789825150113000000008130023700000  000000000000000000000000000000000000000000000000000000000000000000000000000000000000000000000000000000000000000000000                          1600000000                                                                  000065
10242365445000115000000200447009482090010000000000000000078984000000000000007898410000000000000000000000000210180313000005372300000000000000789841150113000000005691023700000  000000000000000000000000000000000000000000000000000000000000000000000000000000000000000000000000000000000000000000000                          1600000000                                                                  000066
10242365445000115000000200447009482090010000000000000000078986000000000000007898680000000000000000000000000210180313000005372500000000000000789868150113000000008130023700000  000000000000000000000000000000000000000000000000000000000000000000000000000000000000000000000000000000000000000000000                          1600000000                                                                  000067
10242365445000115000000200447009482090010000000000000000078990000000000000007899060000000000000000000000000210180313000005372900000000000000789906150113000000003252023700000  000000000000000000000000000000000000000000000000000000000000000000000000000000000000000000000000000000000000000000000                          1600000000                                                                  000068
10242365445000115000000200447009482090010000000000000000078991000000000000007899140000000000000000000000000210180313000005373000000000000000789914150113000000006097523700000  000000000000000000000000000000000000000000000000000000000000000000000000000000000000000000000000000000000000000000000                          1600000000                                                                  000069
10242365445000115000000200447009482090010000000000000000078992000000000000007899220000000000000000000000000210180313000005373100000000000000789922150113000000008130023700000  000000000000000000000000000000000000000000000000000000000000000000000000000000000000000000000000000000000000000000000                          1600000000                                                                  000070
10242365445000115000000200447009482090010000000000000000078996000000000000007899650000000000000000000000000210180313000005373500000000000000789965150113000000003252023700000  000000000000000000000000000000000000000000000000000000000000000000000000000000000000000000000000000000000000000000000                          1600000000                                                                  000071
10242365445000115000000200447009482090010000000000000000079000000000000000007900090000000000000000000000000210180313000005373900000000000000790009150113000000008130023700000  000000000000000000000000000000000000000000000000000000000000000000000000000000000000000000000000000000000000000000000                          1600000000                                                                  000072
10242365445000115000000200447009482090010000000000000000079003000000000000007900330000000000000000000000000210180313000005374200000000000000790033150113000000004065023700000  000000000000000000000000000000000000000000000000000000000000000000000000000000000000000000000000000000000000000000000                          1600000000                                                                  000073
10242365445000115000000200447009482090010000000000000000079004000000000000007900410000000000000000000000000210180313000005374300000000000000790041150113000000008130023700000  000000000000000000000000000000000000000000000000000000000000000000000000000000000000000000000000000000000000000000000                          1600000000                                                                  000074
10242365445000115000000200447009482090010000000000000000079007000000000000007900760000000000000000000000000210180313000005374600000000000000790076150113000000003252023700000  000000000000000000000000000000000000000000000000000000000000000000000000000000000000000000000000000000000000000000000                          1600000000                                                                  000075
10242365445000115000000200447009482090010000000000000000079010000000000000007901060000000000000000000000000210180313000005374900000000000000790106150113000000008130023700000  000000000000000000000000000000000000000000000000000000000000000000000000000000000000000000000000000000000000000000000                          1600000000                                                                  000076
10242365445000115000000200447009482090010000000000000000079015000000000000007901570000000000000000000000000210180313000005375400000000000000790157150113000000006960023700000  000000000000000000000000000000000000000000000000000000000000000000000000000000000000000000000000000000000000000000000                          1600000000                                                                  000077
10242365445000115000000200447009482090010000000000000000079035000000000000007903510000000000000000000000000210180313000005377300000000000000790351150113000000002184023700000  000000000000000000000000000000000000000000000000000000000000000000000000000000000000000000000000000000000000000000000                          1600000000                                                                  000078
10242365445000115000000200447009482090010000000000000000079039000000000000007903940000000000000000000000000210180313000005377700000000000000790394150113000000002184023700000  000000000000000000000000000000000000000000000000000000000000000000000000000000000000000000000000000000000000000000000                          1600000000                                                                  000079
10242365445000115000000200447009482090010000000000000000079041000000000000007904160000000000000000000000000210180313000005377900000000000000790416150113000000002184023700000  000000000000000000000000000000000000000000000000000000000000000000000000000000000000000000000000000000000000000000000                          1600000000                                                                  000080
10242365445000115000000200447009482090010000000000000000079043000000000000007904320000000000000000000000000210180313000005378100000000000000790432150113000000007696023700000  000000000000000000000000000000000000000000000000000000000000000000000000000000000000000000000000000000000000000000000                          1600000000                                                                  000081
10242365445000115000000200447009482090010000000000000000079044000000000000007904400000000000000000000000000210180313000005378200000000000000790440150113000000009620023700000  000000000000000000000000000000000000000000000000000000000000000000000000000000000000000000000000000000000000000000000                          1600000000                                                                  000082
10242365445000115000000200447009482090010000000000000000079045000000000000007904590000000000000000000000000210180313000005378300000000000000790459150113000000007696023700000  000000000000000000000000000000000000000000000000000000000000000000000000000000000000000000000000000000000000000000000                          1600000000                                                                  000083
10242365445000115000000200447009482090010000000000000000079046000000000000007904670000000000000000000000000210180313000005378400000000000000790467150113000000007696023700000  000000000000000000000000000000000000000000000000000000000000000000000000000000000000000000000000000000000000000000000                          1600000000                                                                  000084
10242365445000115000000200447009482090010000000000000000079047000000000000007904750000000000000000000000000210180313000005378500000000000000790475150113000000009620023700000  000000000000000000000000000000000000000000000000000000000000000000000000000000000000000000000000000000000000000000000                          1600000000                                                                  000085
10242365445000115000000200447009482090010000000000000000079048000000000000007904830000000000000000000000000210180313000005378600000000000000790483150113000000004810023700000  000000000000000000000000000000000000000000000000000000000000000000000000000000000000000000000000000000000000000000000                          1600000000                                                                  000086
102423654450001150000002004470094820900100000000000000000790530000000000000079053P000000000000000000000000021018031300000537910000000000000079053P150113000000007696023700000  000000000000000000000000000000000000000000000000000000000000000000000000000000000000000000000000000000000000000000000                          1600000000                                                                  000087
10242365445000115000000200447009482090010000000000000000079055000000000000007905560000000000000000000000000210180313000005379300000000000000790556150113000000007696023700000  000000000000000000000000000000000000000000000000000000000000000000000000000000000000000000000000000000000000000000000                          1600000000                                                                  000088
10242365445000115000000200447009482090010000000000000000079056000000000000007905640000000000000000000000000210180313000005379400000000000000790564150113000000007696023700000  000000000000000000000000000000000000000000000000000000000000000000000000000000000000000000000000000000000000000000000                          1600000000                                                                  000089
10242365445000115000000200447009482090010000000000000000079058000000000000007905800000000000000000000000000210180313000005379600000000000000790580150113000000005460023700000  000000000000000000000000000000000000000000000000000000000000000000000000000000000000000000000000000000000000000000000                          1600000000                                                                  000090
10242365445000115000000200447009482090010000000000000000079059000000000000007905990000000000000000000000000210180313000005379700000000000000790599150113000000002184023700000  000000000000000000000000000000000000000000000000000000000000000000000000000000000000000000000000000000000000000000000                          1600000000                                                                  000091
10242365445000115000000200447009482090010000000000000000079060000000000000007906020000000000000000000000000210180313000005379800000000000000790602150113000000002184023700000  000000000000000000000000000000000000000000000000000000000000000000000000000000000000000000000000000000000000000000000                          1600000000                                                                  000092
10242365445000115000000200447009482090010000000000000000079061000000000000007906100000000000000000000000000210180313000005379900000000000000790610150113000000005460023700000  000000000000000000000000000000000000000000000000000000000000000000000000000000000000000000000000000000000000000000000                          1600000000                                                                  000093
10242365445000115000000200447009482090010000000000000000079069000000000000007906960000000000000000000000000210180313000005380700000000000000790696150113000000009620023700000  000000000000000000000000000000000000000000000000000000000000000000000000000000000000000000000000000000000000000000000                          1600000000                                                                  000094
102423654450001150000002004470094820900100000000000000000790700000000000000079070P000000000000000000000000021018031300000538080000000000000079070P150113000000007696023700000  000000000000000000000000000000000000000000000000000000000000000000000000000000000000000000000000000000000000000000000                          1600000000                                                                  000095
10242365445000115000000200447009482090010000000000000000079071000000000000007907180000000000000000000000000210180313000005380900000000000000790718150113000000009620023700000  000000000000000000000000000000000000000000000000000000000000000000000000000000000000000000000000000000000000000000000                          1600000000                                                                  000096
10242365445000115000000200447009482090010000000000000000079074000000000000007907420000000000000000000000000210180313000005381200000000000000790742150113000000009620023700000  000000000000000000000000000000000000000000000000000000000000000000000000000000000000000000000000000000000000000000000                          1600000000                                                                  000097
10242365445000115000000200447009482090010000000000000000079075000000000000007907500000000000000000000000000210180313000005381300000000000000790750150113000000009620023700000  000000000000000000000000000000000000000000000000000000000000000000000000000000000000000000000000000000000000000000000                          1600000000                                                                  000098
10242365445000115000000200447009482090010000000000000000079076000000000000007907690000000000000000000000000210180313000005381400000000000000790769150113000000007696023700000  000000000000000000000000000000000000000000000000000000000000000000000000000000000000000000000000000000000000000000000                          1600000000                                                                  000099
10242365445000115000000200447009482090010000000000000000079077000000000000007907770000000000000000000000000210180313000005381500000000000000790777150113000000009620023700000  000000000000000000000000000000000000000000000000000000000000000000000000000000000000000000000000000000000000000000000                          1600000000                                                                  000100
10242365445000115000000200447009482090010000000000000000079079000000000000007907930000000000000000000000000210180313000005381700000000000000790793150113000000009620023700000  000000000000000000000000000000000000000000000000000000000000000000000000000000000000000000000000000000000000000000000                          1600000000                                                                  000101
10242365445000115000000200447009482090010000000000000000079080000000000000007908070000000000000000000000000210180313000005381800000000000000790807150113000000009620023700000  000000000000000000000000000000000000000000000000000000000000000000000000000000000000000000000000000000000000000000000                          1600000000                                                                  000102
10242365445000115000000200447009482090010000000000000000079082000000000000007908230000000000000000000000000210180313000005382000000000000000790823150113000000009620023700000  000000000000000000000000000000000000000000000000000000000000000000000000000000000000000000000000000000000000000000000                          1600000000                                                                  000103
10242365445000115000000200447009482090010000000000000000079083000000000000007908310000000000000000000000000210180313000005382100000000000000790831150113000000009620023700000  000000000000000000000000000000000000000000000000000000000000000000000000000000000000000000000000000000000000000000000                          1600000000                                                                  000104
10242365445000115000000200447009482090010000000000000000079086000000000000007908660000000000000000000000000210180313000005382400000000000000790866150113000000009620023700000  000000000000000000000000000000000000000000000000000000000000000000000000000000000000000000000000000000000000000000000                          1600000000                                                                  000105
10242365445000115000000200447009482090010000000000000000079087000000000000007908740000000000000000000000000210180313000005382500000000000000790874150113000000009620023700000  000000000000000000000000000000000000000000000000000000000000000000000000000000000000000000000000000000000000000000000                          1600000000                                                                  000106
10242365445000115000000200447009482090010000000000000000079088000000000000007908820000000000000000000000000210180313000005382600000000000000790882150113000000009620023700000  000000000000000000000000000000000000000000000000000000000000000000000000000000000000000000000000000000000000000000000                          1600000000                                                                  000107
10242365445000115000000200447009482090010000000000000000079089000000000000007908900000000000000000000000000210180313000005382700000000000000790890150113000000009620023700000  000000000000000000000000000000000000000000000000000000000000000000000000000000000000000000000000000000000000000000000                          1600000000                                                                  000108
10242365445000115000000200447009482090010000000000000000079090000000000000007909040000000000000000000000000210180313000005382800000000000000790904150113000000009620023700000  000000000000000000000000000000000000000000000000000000000000000000000000000000000000000000000000000000000000000000000                          1600000000                                                                  000109
10242365445000115000000200447009482090010000000000000000079092000000000000007909200000000000000000000000000210180313000005383000000000000000790920150113000000009620023700000  000000000000000000000000000000000000000000000000000000000000000000000000000000000000000000000000000000000000000000000                          1600000000                                                                  000110
10242365445000115000000200447009482090010000000000000000079094000000000000007909470000000000000000000000000210180313000005383200000000000000790947150113000000009620023700000  000000000000000000000000000000000000000000000000000000000000000000000000000000000000000000000000000000000000000000000                          1600000000                                                                  000111
10242365445000115000000200447009482090010000000000000000079095000000000000007909550000000000000000000000000210180313000005383300000000000000790955150113000000009620023700000  000000000000000000000000000000000000000000000000000000000000000000000000000000000000000000000000000000000000000000000                          1600000000                                                                  000112
10242365445000115000000200447009482090010000000000000000079096000000000000007909630000000000000000000000000210180313000005383400000000000000790963150113000000009620023700000  000000000000000000000000000000000000000000000000000000000000000000000000000000000000000000000000000000000000000000000                          1600000000                                                                  000113
10242365445000115000000200447009482090010000000000000000079097000000000000007909710000000000000000000000000210180313000005383500000000000000790971150113000000009620023700000  000000000000000000000000000000000000000000000000000000000000000000000000000000000000000000000000000000000000000000000                          1600000000                                                                  000114
102423654450001150000002004470094820900100000000000000000790980000000000000079098P000000000000000000000000021018031300000538360000000000000079098P150113000000009620023700000  000000000000000000000000000000000000000000000000000000000000000000000000000000000000000000000000000000000000000000000                          1600000000                                                                  000115
10242365445000115000000200447009482090010000000000000000079101000000000000007910130000000000000000000000000210180313000005383900000000000000791013150113000000009620023700000  000000000000000000000000000000000000000000000000000000000000000000000000000000000000000000000000000000000000000000000                          1600000000                                                                  000116
10242365445000115000000200447009482090010000000000000000079102000000000000007910210000000000000000000000000210180313000005384000000000000000791021150113000000009620023700000  000000000000000000000000000000000000000000000000000000000000000000000000000000000000000000000000000000000000000000000                          1600000000                                                                  000117
102423654450001150000002004470094820900100000000000000000791030000000000000079103P000000000000000000000000021018031300000538410000000000000079103P150113000000009620023700000  000000000000000000000000000000000000000000000000000000000000000000000000000000000000000000000000000000000000000000000                          1600000000                                                                  000118
10242365445000115000000200447009482090010000000000000000079104000000000000007910480000000000000000000000000210180313000005384200000000000000791048150113000000009620023700000  000000000000000000000000000000000000000000000000000000000000000000000000000000000000000000000000000000000000000000000                          1600000000                                                                  000119
10242365445000115000000200447009482090010000000000000000079105000000000000007910560000000000000000000000000210180313000005384300000000000000791056150113000000009620023700000  000000000000000000000000000000000000000000000000000000000000000000000000000000000000000000000000000000000000000000000                          1600000000                                                                  000120
10242365445000115000000200447009482090010000000000000000079106000000000000007910640000000000000000000000000210180313000005384400000000000000791064150113000000009620023700000  000000000000000000000000000000000000000000000000000000000000000000000000000000000000000000000000000000000000000000000                          1600000000                                                                  000121
10242365445000115000000200447009482090010000000000000000079109000000000000007910990000000000000000000000000210180313000005384700000000000000791099150113000000009620023700000  000000000000000000000000000000000000000000000000000000000000000000000000000000000000000000000000000000000000000000000                          1600000000                                                                  000122
10242365445000115000000200447009482090010000000000000000079110000000000000007911020000000000000000000000000210180313000005384800000000000000791102150113000000009620023700000  000000000000000000000000000000000000000000000000000000000000000000000000000000000000000000000000000000000000000000000                          1600000000                                                                  000123
10242365445000115000000200447009482090010000000000000000079111000000000000007911100000000000000000000000000210180313000005384900000000000000791110150113000000009620023700000  000000000000000000000000000000000000000000000000000000000000000000000000000000000000000000000000000000000000000000000                          1600000000                                                                  000124
10242365445000115000000200447009482090010000000000000000079112000000000000007911290000000000000000000000000210180313000005385000000000000000791129150113000000009620023700000  000000000000000000000000000000000000000000000000000000000000000000000000000000000000000000000000000000000000000000000                          1600000000                                                                  000125
10242365445000115000000200447009482090010000000000000000079114000000000000007911450000000000000000000000000210180313000005385200000000000000791145150113000000009620023700000  000000000000000000000000000000000000000000000000000000000000000000000000000000000000000000000000000000000000000000000                          1600000000                                                                  000126
102423654450001150000002004470094820900100000000000000000791170000000000000079117P000000000000000000000000021018031300000538550000000000000079117P150113000000009620023700000  000000000000000000000000000000000000000000000000000000000000000000000000000000000000000000000000000000000000000000000                          1600000000                                                                  000127
10242365445000115000000200447009482090010000000000000000079121000000000000007912180000000000000000000000000210180313000005385900000000000000791218150113000000009620023700000  000000000000000000000000000000000000000000000000000000000000000000000000000000000000000000000000000000000000000000000                          1600000000                                                                  000128
10242365445000115000000200447009482090010000000000000000079122000000000000007912260000000000000000000000000210180313000005386000000000000000791226150113000000009620023700000  000000000000000000000000000000000000000000000000000000000000000000000000000000000000000000000000000000000000000000000                          1600000000                                                                  000129
10242365445000115000000200447009482090010000000000000000079123000000000000007912340000000000000000000000000210180313000005386100000000000000791234150113000000009620023700000  000000000000000000000000000000000000000000000000000000000000000000000000000000000000000000000000000000000000000000000                          1600000000                                                                  000130
10242365445000115000000200447009482090010000000000000000079124000000000000007912420000000000000000000000000210180313000005386200000000000000791242150113000000009620023700000  000000000000000000000000000000000000000000000000000000000000000000000000000000000000000000000000000000000000000000000                          1600000000                                                                  000131
10242365445000115000000200447009482090010000000000000000079125000000000000007912500000000000000000000000000210180313000005386300000000000000791250150113000000009620023700000  000000000000000000000000000000000000000000000000000000000000000000000000000000000000000000000000000000000000000000000                          1600000000                                                                  000132
10242365445000115000000200447009482090010000000000000000079126000000000000007912690000000000000000000000000210180313000005386400000000000000791269150113000000009620023700000  000000000000000000000000000000000000000000000000000000000000000000000000000000000000000000000000000000000000000000000                          1600000000                                                                  000133
10242365445000115000000200447009482090010000000000000000079127000000000000007912770000000000000000000000000210180313000005386500000000000000791277150113000000009620023700000  000000000000000000000000000000000000000000000000000000000000000000000000000000000000000000000000000000000000000000000                          1600000000                                                                  000134
10242365445000115000000200447009482090010000000000000000079128000000000000007912850000000000000000000000000210180313000005386600000000000000791285150113000000009620023700000  000000000000000000000000000000000000000000000000000000000000000000000000000000000000000000000000000000000000000000000                          1600000000                                                                  000135
10242365445000115000000200447009482090010000000000000000079129000000000000007912930000000000000000000000000210180313000005386700000000000000791293150113000000009620023700000  000000000000000000000000000000000000000000000000000000000000000000000000000000000000000000000000000000000000000000000                          1600000000                                                                  000136
10242365445000115000000200447009482090010000000000000000079132000000000000007913230000000000000000000000000210180313000005387000000000000000791323150113000000009620023700000  000000000000000000000000000000000000000000000000000000000000000000000000000000000000000000000000000000000000000000000                          1600000000                                                                  000137
10242365445000115000000200447009482090010000000000000000079133000000000000007913310000000000000000000000000210180313000005387100000000000000791331150113000000009620023700000  000000000000000000000000000000000000000000000000000000000000000000000000000000000000000000000000000000000000000000000                          1600000000                                                                  000138
102423654450001150000002004470094820900100000000000000000791340000000000000079134P000000000000000000000000021018031300000538720000000000000079134P150113000000009620023700000  000000000000000000000000000000000000000000000000000000000000000000000000000000000000000000000000000000000000000000000                          1600000000                                                                  000139
10242365445000115000000200447009482090010000000000000000079135000000000000007913580000000000000000000000000210180313000005387300000000000000791358150113000000009620023700000  000000000000000000000000000000000000000000000000000000000000000000000000000000000000000000000000000000000000000000000                          1600000000                                                                  000140
10242365445000115000000200447009482090010000000000000000079138000000000000007913820000000000000000000000000210180313000005387600000000000000791382150113000000005040023700000  000000000000000000000000000000000000000000000000000000000000000000000000000000000000000000000000000000000000000000000                          1600000000                                                                  000141
10242365445000115000000200447009482090010000000000000000079139000000000000007913900000000000000000000000000210180313000005387700000000000000791390150113000000005040023700000  000000000000000000000000000000000000000000000000000000000000000000000000000000000000000000000000000000000000000000000                          1600000000                                                                  000142
10242365445000115000000200447009482090010000000000000000079140000000000000007914040000000000000000000000000210180313000005387800000000000000791404150113000000001924023700000  000000000000000000000000000000000000000000000000000000000000000000000000000000000000000000000000000000000000000000000                          1600000000                                                                  000143
10242365445000115000000200447009482090010000000000000000079141000000000000007914120000000000000000000000000210180313000005387900000000000000791412150113000000003168023700000  000000000000000000000000000000000000000000000000000000000000000000000000000000000000000000000000000000000000000000000                          1600000000                                                                  000144
10242365445000115000000200447009482090010000000000000000079142000000000000007914200000000000000000000000000210180313000005388000000000000000791420150113000000003704023700000  000000000000000000000000000000000000000000000000000000000000000000000000000000000000000000000000000000000000000000000                          1600000000                                                                  000145
10242365445000115000000200447009482090010000000000000000079143000000000000007914390000000000000000000000000210180313000005388100000000000000791439150113000000003168023700000  000000000000000000000000000000000000000000000000000000000000000000000000000000000000000000000000000000000000000000000                          1600000000                                                                  000146
10242365445000115000000200447009482090010000000000000000079144000000000000007914470000000000000000000000000210180313000005388200000000000000791447150113000000006482023700000  000000000000000000000000000000000000000000000000000000000000000000000000000000000000000000000000000000000000000000000                          1600000000                                                                  000147
10242365445000115000000200447009482090010000000000000000079147000000000000007914710000000000000000000000000210180313000005388500000000000000791471150113000000003848023700000  000000000000000000000000000000000000000000000000000000000000000000000000000000000000000000000000000000000000000000000                          1600000000                                                                  000148
102423654450001150000002004470094820900100000000000000000791480000000000000079148P000000000000000000000000021018031300000538860000000000000079148P150113000000001178023700000  000000000000000000000000000000000000000000000000000000000000000000000000000000000000000000000000000000000000000000000                          1600000000                                                                  000149
10242365445000115000000200447009482090010000000000000000079153000000000000007915360000000000000000000000000210180313000005389100000000000000791536150113000000002064023700000  000000000000000000000000000000000000000000000000000000000000000000000000000000000000000000000000000000000000000000000                          1600000000                                                                  000150
10242365445000115000000200447009482090010000000000000000079154000000000000007915440000000000000000000000000210180313000005389200000000000000791544150113000000002064023700000  000000000000000000000000000000000000000000000000000000000000000000000000000000000000000000000000000000000000000000000                          1600000000                                                                  000151
10242365445000115000000200447009482090010000000000000000079158000000000000007915870000000000000000000000000210180313000005389600000000000000791587150113000000002373023700000  000000000000000000000000000000000000000000000000000000000000000000000000000000000000000000000000000000000000000000000                          1600000000                                                                  000152
10242365445000115000000200447009482090010000000000000000079159000000000000007915950000000000000000000000000210180313000005389700000000000000791595150113000000006328023700000  000000000000000000000000000000000000000000000000000000000000000000000000000000000000000000000000000000000000000000000                          1600000000                                                                  000153
10242365445000115000000200447009482090010000000000000000079161000000000000007916170000000000000000000000000210180313000005389900000000000000791617150113000000003196023700000  000000000000000000000000000000000000000000000000000000000000000000000000000000000000000000000000000000000000000000000                          1600000000                                                                  000154
10242365445000115000000200447009482090010000000000000000079162000000000000007916250000000000000000000000000210180313000005390000000000000000791625150113000000006384023700000  000000000000000000000000000000000000000000000000000000000000000000000000000000000000000000000000000000000000000000000                          1600000000                                                                  000155
10242365445000115000000200447009482090010000000000000000079164000000000000007916410000000000000000000000000210180313000005390200000000000000791641150113000000003192023700000  000000000000000000000000000000000000000000000000000000000000000000000000000000000000000000000000000000000000000000000                          1600000000                                                                  000156
102423654450001150000002004470094820900100000000000000000791650000000000000079165P000000000000000000000000021018031300000539030000000000000079165P150113000000003192023700000  000000000000000000000000000000000000000000000000000000000000000000000000000000000000000000000000000000000000000000000                          1600000000                                                                  000157
10242365445000115000000200447009482090010000000000000000079167000000000000007916760000000000000000000000000210180313000005390500000000000000791676150113000000005544023700000  000000000000000000000000000000000000000000000000000000000000000000000000000000000000000000000000000000000000000000000                          1600000000                                                                  000158
10242365445000115000000200447009482090010000000000000000079177000000000000007917730000000000000000000000000210180313000005391500000000000000791773150113000000003168023700000  000000000000000000000000000000000000000000000000000000000000000000000000000000000000000000000000000000000000000000000                          1600000000                                                                  000159
10242365445000115000000200447009482090010000000000000000079178000000000000007917810000000000000000000000000210180313000005391600000000000000791781150113000000004128023700000  000000000000000000000000000000000000000000000000000000000000000000000000000000000000000000000000000000000000000000000                          1600000000                                                                  000160
102423654450001150000002004470094820900100000000000000000791790000000000000079179P000000000000000000000000021018031300000539170000000000000079179P150113000000002064023700000  000000000000000000000000000000000000000000000000000000000000000000000000000000000000000000000000000000000000000000000                          1600000000                                                                  000161
10242365445000115000000200447009482090010000000000000000079186000000000000007918620000000000000000000000000210180313000005392400000000000000791862150113000000003164023700000  000000000000000000000000000000000000000000000000000000000000000000000000000000000000000000000000000000000000000000000                          1600000000                                                                  000162
10242365445000115000000200447009482090010000000000000000079187000000000000007918700000000000000000000000000210180313000005392500000000000000791870150113000000003164023700000  000000000000000000000000000000000000000000000000000000000000000000000000000000000000000000000000000000000000000000000                          1600000000                                                                  000163
10242365445000115000000200447009482090010000000000000000079188000000000000007918890000000000000000000000000210180313000005392600000000000000791889150113000000003955023700000  000000000000000000000000000000000000000000000000000000000000000000000000000000000000000000000000000000000000000000000                          1600000000                                                                  000164
10242365445000115000000200447009482090010000000000000000079190000000000000007919000000000000000000000000000210180313000005392800000000000000791900150113000000002397023700000  000000000000000000000000000000000000000000000000000000000000000000000000000000000000000000000000000000000000000000000                          1600000000                                                                  000165
1024236544500011500000020044700948209                         0000000000000074094P0000000000000000000000000217180313          0000000000000074094P000000000000012358523700213  000000000000000000000000000000000000000000000000000000000000000000000000000000000000012358500000000000000000000000000   180313                 0000000000                                                                  000166
1024236544500011500000020044700948209                         000000000000007843940000000000000000000000000217180313          00000000000000784394000000000000006734023703086  000000000000000000000000000000000000000000000000000000000000000000000000000000000000006734000000000000000000000000000   180313                 0000000000                                                                  000167
1024236544500011500000020044700948209                         000000000000008228490000000000000000000000000217180313          00000000000000822849000000000000008159223703119  000000000000000000000000000000000000000000000000000000000000000000000000000000000000008159200000000000000000000000000   180313                 0000000000                                                                  000168
1024236544500011500000020044700948209                         000000000000008321940000000000000000000000000217180313          00000000000000832194000000000000006532423702789  000000000000000000000000000000000000000000000000000000000000000000000000000000000000006532400000000000000000000000000   180313                 0000000000                                                                  000169
1024236544500011500000020044700948209                         000000000000008409360000000000000000000000000217180313          00000000000000840936000000000000008186123700551  000000000000000000000000000000000000000000000000000000000000000000000000000000000000008186100000000000000000000000000   180313                 0000000000                                                                  000170
1024236544500011500000020044700948209                         000000000000008418510000000000000000000000000217180313          00000000000000841851000000000000003796803303891  000000000000000000000000000000000000000000000000000000000000000000000000000000000000003796800000000000000000000000000   180313                 0000000000                                                                  000171
1024236544500011500000020044700948209                         000000000000008474690000000000000000000000000217180313          00000000000000847469000000000000005340623703463  000000000000000000000000000000000000000000000000000000000000000000000000000000000000005340600000000000000000000000000   180313                 0000000000                                                                  000172
1024236544500011500000020044700948209                         000000000000008519540000000000000000000000000217180313          00000000000000851954000000000000004200723706592  000000000000000000000000000000000000000000000000000000000000000000000000000000000000004200700000000000000000000000000   180313                 0000000000                                                                  000173
1024236544500011500000020044700948209                         000000000000008554960000000000000000000000000217180313          00000000000000855496000000000000010910023703007  000000000000000000000000000000000000000000000000000000000000000000000000000000000000010910000000000000000000000000000   180313                 0000000000                                                                  000174
1024236544500011500000020044700948209                         000000000000008748490000000000000000000000000217180313          00000000000000874849000000000000006808523703249  000000000000000000000000000000000000000000000000000000000000000000000000000000000000006808500000000000000000000000000   180313                 0000000000                                                                  000175
1024236544500011500000020044700948209                         000000000000008816320000000000000000000000000217180313          00000000000000881632000000000000005915523701882  000000000000000000000000000000000000000000000000000000000000000000000000000000000000005915500000000000000000000000000   180313                 0000000000                                                                  000176
1024236544500011500000020044700948209                         000000000000008816670000000000000000000000000217180313          00000000000000881667000000000000004240023702494  000000000000000000000000000000000000000000000000000000000000000000000000000000000000004240000000000000000000000000000   180313                 0000000000                                                                  000177
1024236544500011500000020044700948209                         0000000000000088867P0000000000000000000000000217180313          0000000000000088867P000000000000005544000100296  000000000000000000000000000000000000000000000000000000000000000000000000000000000000005544000000000000000000000000000   180313                 0000000000                                                                  000178
1024236544500011500000020044700948209                         000000000000008907710000000000000000000000000217180313          00000000000000890771000000000000003250823700446  000000000000000000000000000000000000000000000000000000000000000000000000000000000000003250800000000000000000000000000   180313                 0000000000                                                                  000179
1024236544500011500000020044700948209                         000000000000008909760000000000000000000000000217180313          00000000000000890976000000000000004845723703119  000000000000000000000000000000000000000000000000000000000000000000000000000000000000004845700000000000000000000000000   180313                 0000000000                                                                  000180
1024236544500011500000020044700948209                         000000000000008939750000000000000000000000000217180313          00000000000000893975000000000000007470523700227  000000000000000000000000000000000000000000000000000000000000000000000000000000000000007470500000000000000000000000000   180313                 0000000000                                                                  000181
1024236544500011500000020044700948209                         000000000000008948740000000000000000000000000217180313          00000000000000894874000000000000008090023700583  000000000000000000000000000000000000000000000000000000000000000000000000000000000000008090000000000000000000000000000   180313                 0000000000                                                                  000182
1024236544500011500000020044700948209                         000000000000008957060000000000000000000000000217180313          00000000000000895706000000000000007682023700135  000000000000000000000000000000000000000000000000000000000000000000000000000000000000007682000000000000000000000000000   180313                 0000000000                                                                  000183
1024236544500011500000020044700948209                         000000000000008961170000000000000000000000000217180313          00000000000000896117000000000000006469023702789  000000000000000000000000000000000000000000000000000000000000000000000000000000000000006469000000000000000000000000000   180313                 0000000000                                                                  000184
1024236544500011500000020044700948209                         000000000000008969740000000000000000000000000217180313          00000000000000896974000000000000008157923702779  000000000000000000000000000000000000000000000000000000000000000000000000000000000000008157900000000000000000000000000   180313                 0000000000                                                                  000185
1024236544500011500000020044700948209                         000000000000008974580000000000000000000000000217180313          00000000000000897458000000000000005710623701444  000000000000000000000000000000000000000000000000000000000000000000000000000000000000005710600000000000000000000000000   180313                 0000000000                                                                  000186
1024236544500011500000020044700948209                         0000000000000089811P0000000000000000000000000217180313          0000000000000089811P000000000000008068223700135  000000000000000000000000000000000000000000000000000000000000000000000000000000000000008068200000000000000000000000000   180313                 0000000000                                                                  000187
1024236544500011500000020044700948209                         000000000000009014470000000000000000000000000217180313          00000000000000901447000000000000014375523703726  000000000000000000000000000000000000000000000000000000000000000000000000000000000000014375500000000000000000000000000   180313                 0000000000                                                                  000188
1024236544500011500000020044700948209                         000000000000009021920000000000000000000000000217180313          00000000000000902192000000000000007042823700551  000000000000000000000000000000000000000000000000000000000000000000000000000000000000007042800000000000000000000000000   180313                 0000000000                                                                  000189
1024236544500011500000020044700948209                         000000000000009060900000000000000000000000000217180313          00000000000000906090000000000000005674823701394  000000000000000000000000000000000000000000000000000000000000000000000000000000000000005674800000000000000000000000000   180313                 0000000000                                                                  000190
1024236544500011500000020044700948209                         0000000000000090778P0000000000000000000000000217180313          0000000000000090778P000000000000006890123703019  000000000000000000000000000000000000000000000000000000000000000000000000000000000000006890100000000000000000000000000   180313                 0000000000                                                                  000191
1024236544500011500000020044700948209                         000000000000009080180000000000000000000000000217180313          00000000000000908018000000000000009319723706643  000000000000000000000000000000000000000000000000000000000000000000000000000000000000009319700000000000000000000000000   180313                 0000000000                                                                  000192
1024236544500011500000020044700948209                         000000000000009110000000000000000000000000000217180313          00000000000000911000000000000000007563623701631  000000000000000000000000000000000000000000000000000000000000000000000000000000000000007563600000000000000000000000000   180313                 0000000000                                                                  000193
1024236544500011500000020044700948209                         000000000000009113960000000000000000000000000217180313          00000000000000911396000000000000010055023703232  000000000000000000000000000000000000000000000000000000000000000000000000000000000000010055000000000000000000000000000   180313                 0000000000                                                                  000194
1024236544500011500000020044700948209                         000000000000009115070000000000000000000000000217180313          00000000000000911507000000000000010055023703232  000000000000000000000000000000000000000000000000000000000000000000000000000000000000010055000000000000000000000000000   180313                 0000000000                                                                  000195
1024236544500011500000020044700948209                         000000000000009122280000000000000000000000000217180313          00000000000000912228000000000000003902223701452  000000000000000000000000000000000000000000000000000000000000000000000000000000000000003902200000000000000000000000000   180313                 0000000000                                                                  000196
1024236544500011500000020044700948209                         000000000000009129960000000000000000000000000217180313          00000000000000912996000000000000009822023703007  000000000000000000000000000000000000000000000000000000000000000000000000000000000000009822000000000000000000000000000   180313                 0000000000                                                                  000197
1024236544500011500000020044700948209                         000000000000009141150000000000000000000000000217180313          00000000000000914115000000000000009005123701453  000000000000000000000000000000000000000000000000000000000000000000000000000000000000009005100000000000000000000000000   180313                 0000000000                                                                  000198
1024236544500011500000020044700948209                         000000000000009145730000000000000000000000000217180313          00000000000000914573000000000000006875323700227  000000000000000000000000000000000000000000000000000000000000000000000000000000000000006875300000000000000000000000000   180313                 0000000000                                                                  000199
1024236544500011500000020044700948209                         0000000000000091459P0000000000000000000000000217180313          0000000000000091459P000000000000005660423702777  000000000000000000000000000000000000000000000000000000000000000000000000000000000000005660400000000000000000000000000   180313                 0000000000                                                                  000200
1024236544500011500000020044700948209                         000000000000009149560000000000000000000000000217180313          00000000000000914956000000000000006746823701075  000000000000000000000000000000000000000000000000000000000000000000000000000000000000006746800000000000000000000000000   180313                 0000000000                                                                  000201
1024236544500011500000020044700948209                         000000000000009157660000000000000000000000000217180313          00000000000000915766000000000000003822039900898  000000000000000000000000000000000000000000000000000000000000000000000000000000000000003822000000000000000000000000000   180313                 0000000000                                                                  000202
1024236544500011500000020044700948209                         000000000000009181290000000000000000000000000217180313          00000000000000918129000000000000004217523700447  000000000000000000000000000000000000000000000000000000000000000000000000000000000000004217500000000000000000000000000   180313                 0000000000                                                                  000203
1024236544500011500000020044700948209                         000000000000009197530000000000000000000000000217180313          00000000000000919753000000000000006482034106504  000000000000000000000000000000000000000000000000000000000000000000000000000000000000006482000000000000000000000000000   180313                 0000000000                                                                  000204
1024236544500011500000020044700948209                         000000000000009220290000000000000000000000000217180313          00000000000000922029000000000000006482223703172  000000000000000000000000000000000000000000000000000000000000000000000000000000000000006482200000000000000000000000000   180313                 0000000000                                                                  000205
1024236544500011500000020044700948209                         000000000000009235130000000000000000000000000217180313          00000000000000923513000000000000006630023700872  000000000000000000000000000000000000000000000000000000000000000000000000000000000000006630000000000000000000000000000   180313                 0000000000                                                                  000206
1024236544500011500000020044700948209                         000000000000009244390000000000000000000000000217150313          00000000000000924439000000000000006734034105900  000000000000000000000000000000000000000000000000000000000000000000000000000000000000006734000000000000000000000000000   180313                 0000000000                                                                  000207
1024236544500011500000020044700948209                         000000000000009249860000000000000000000000000217180313          00000000000000924986000000000000005891323700472  000000000000000000000000000000000000000000000000000000000000000000000000000000000000005891300000000000000000000000000   180313                 0000000000                                                                  000208
1024236544500011500000020044700948209                         000000000000009268650000000000000000000000000217180313          00000000000000926865000000000000005180000103520  000000000000000000000000000000000000000000000000000000000000000000000000000000000000005180000000000000000000000000000   180313                 0000000000                                                                  000209
1024236544500011500000020044700948209                         000000000000009269030000000000000000000000000217180313          00000000000000926903000000000000005660323702014  000000000000000000000000000000000000000000000000000000000000000000000000000000000000005660300000000000000000000000000   180313                 0000000000                                                                  000210
1024236544500011500000020044700948209                         000000000000009271870000000000000000000000000217180313          00000000000000927187000000000000004974323701804  000000000000000000000000000000000000000000000000000000000000000000000000000000000000004974300000000000000000000000000   180313                 0000000000                                                                  000211
1024236544500011500000020044700948209                         000000000000009275270000000000000000000000000217180313          00000000000000927527000000000000003100823702789  000000000000000000000000000000000000000000000000000000000000000000000000000000000000003100800000000000000000000000000   180313                 0000000000                                                                  000212
1024236544500011500000020044700948209                         0000000000000093244P0000000000000000000000000217180313          0000000000000093244P000000000000010315223702785  000000000000000000000000000000000000000000000000000000000000000000000000000000000000010315200000000000000000000000000   180313                 0000000000                                                                  000213
1024236544500011500000020044700948209                         0000000000000093311P0000000000000000000000000217180313          0000000000000093311P000000000000007119023703119  000000000000000000000000000000000000000000000000000000000000000000000000000000000000007119000000000000000000000000000   180313                 0000000000                                                                  000214
1024236544500011500000020044700948209                         000000000000009332680000000000000000000000000217180313          00000000000000933268000000000000006960003300093  000000000000000000000000000000000000000000000000000000000000000000000000000000000000006960000000000000000000000000000   180313                 0000000000                                                                  000215
1024236544500011500000020044700948209                         000000000000009340350000000000000000000000000217140313          00000000000000934035000000000000006734023702766  000000000000000000000000000000000000000000000000000000000000000000000000000000000000006734000000000000000000000000000   180313                 1500000000                                                                  000216
1024236544500011500000020044700948209                         000000000000009344770000000000000000000000000217180313          00000000000000934477000000000000002060723703402  000000000000000000000000000000000000000000000000000000000000000000000000000000000000002060700000000000000000000000000   180313                 0000000000                                                                  000217
1024236544500011500000020044700948209                         000000000000009347790000000000000000000000000217180313          00000000000000934779000000000000000800034105631  000000000000000000000000000000000000000000000000000000000000000000000000000000000000000800000000000000000000000000000   180313                 0000000000                                                                  000218
1024236544500011500000020044700948209                         000000000000009362240000000000000000000000000217180313          00000000000000936224000000000000002040023702789  000000000000000000000000000000000000000000000000000000000000000000000000000000000000002040000000000000000000000000000   180313                 0000000000                                                                  000219
1024236544500011500000020044700948209                         000000000000009364960000000000000000000000000217180313          00000000000000936496000000000000006870034108865  000000000000000000000000000000000000000000000000000000000000000000000000000000000000006870000000000000000000000000000   180313                 0000000000                                                                  000220
1024236544500011500000020044700948209                         000000000000009373440000000000000000000000000217180313          00000000000000937344000000000000000825323702922  000000000000000000000000000000000000000000000000000000000000000000000000000000000000000825300000000000000000000000000   180313                 0000000000                                                                  000221
1024236544500011500000020044700948209                         000000000000009378750000000000000000000000000217180313          00000000000000937875000000000000005160023702579  000000000000000000000000000000000000000000000000000000000000000000000000000000000000005160000000000000000000000000000   180313                 0000000000                                                                  000222
1024236544500011500000020044700948209                         000000000000009378830000000000000000000000000217180313          00000000000000937883000000000000005310823702579  000000000000000000000000000000000000000000000000000000000000000000000000000000000000005310800000000000000000000000000   180313                 0000000000                                                                  000223
1024236544500011500000020044700948209                         000000000000009382000000000000000000000000000217180313          00000000000000938200000000000000007108023701414  000000000000000000000000000000000000000000000000000000000000000000000000000000000000007108000000000000000000000000000   180313                 0000000000                                                                  000224
1024236544500011500000020044700948209                         000000000000009391340000000000000000000000000217180313          00000000000000939134000000000000006460923702784  000000000000000000000000000000000000000000000000000000000000000000000000000000000000006460900000000000000000000000000   180313                 0000000000                                                                  000225
1024236544500011500000020044700948209                         000000000000009392150000000000000000000000000217180313          00000000000000939215000000000000004746003304467  000000000000000000000000000000000000000000000000000000000000000000000000000000000000004746000000000000000000000000000   180313                 0000000000                                                                  000226
1024236544500011500000020044700948209                         000000000000009395090000000000000000000000000217180313          00000000000000939509000000000000004275023701414  000000000000000000000000000000000000000000000000000000000000000000000000000000000000004275000000000000000000000000000   180313                 0000000000                                                                  000227
1024236544500011500000020044700948209                         000000000000009395330000000000000000000000000217180313          00000000000000939533000000000000004500023701414  000000000000000000000000000000000000000000000000000000000000000000000000000000000000004500000000000000000000000000000   180313                 0000000000                                                                  000228
1024236544500011500000020044700948209                         000000000000009395410000000000000000000000000217180313          00000000000000939541000000000000004500023701414  000000000000000000000000000000000000000000000000000000000000000000000000000000000000004500000000000000000000000000000   180313                 0000000000                                                                  000229
1024236544500011500000020044700948209                         0000000000000093955P0000000000000000000000000217180313          0000000000000093955P000000000000004500023701414  000000000000000000000000000000000000000000000000000000000000000000000000000000000000004500000000000000000000000000000   180313                 0000000000                                                                  000230
1024236544500011500000020044700948209                         000000000000009402640000000000000000000000000217180313          00000000000000940264000000000000007910023700447  000000000000000000000000000000000000000000000000000000000000000000000000000000000000007910000000000000000000000000000   180313                 0000000000                                                                  000231
1024236544500011500000020044700948209                         000000000000009402720000000000000000000000000217180313          00000000000000940272000000000000005537023700447  000000000000000000000000000000000000000000000000000000000000000000000000000000000000005537000000000000000000000000000   180313                 0000000000                                                                  000232
1024236544500011500000020044700948209                         000000000000009403450000000000000000000000000217180313          00000000000000940345000000000000008123623703249  000000000000000000000000000000000000000000000000000000000000000000000000000000000000008123600000000000000000000000000   180313                 0000000000                                                                  000233
1024236544500011500000020044700948209                         000000000000009405310000000000000000000000000217180313          00000000000000940531000000000000004746003303969  000000000000000000000000000000000000000000000000000000000000000000000000000000000000004746000000000000000000000000000   180313                 0000000000                                                                  000234
1024236544500011500000020044700948209                         0000000000000094085P0000000000000000000000000217180313          0000000000000094085P000000000000004550023701414  000000000000000000000000000000000000000000000000000000000000000000000000000000000000004550000000000000000000000000000   180313                 0000000000                                                                  000235
1024236544500011500000020044700948209                         000000000000009408680000000000000000000000000217180313          00000000000000940868000000000000004550023701414  000000000000000000000000000000000000000000000000000000000000000000000000000000000000004550000000000000000000000000000   180313                 0000000000                                                                  000236
1024236544500011500000020044700948209                         000000000000009409220000000000000000000000000217180313          00000000000000940922000000000000007920023703434  000000000000000000000000000000000000000000000000000000000000000000000000000000000000007920000000000000000000000000000   180313                 0000000000                                                                  000237
1024236544500011500000020044700948209                         000000000000009409730000000000000000000000000217180313          00000000000000940973000000000000006336034106012  000000000000000000000000000000000000000000000000000000000000000000000000000000000000006336000000000000000000000000000   180313                 0000000000                                                                  000238
1024236544500011500000020044700948209                         000000000000009423210000000000000000000000000217180313          00000000000000942321000000000000003534010403024  000000000000000000000000000000000000000000000000000000000000000000000000000000000000003534000000000000000000000000000   180313                 0000000000                                                                  000239
1024236544500011500000020044700948209                         0000000000000094233P0000000000000000000000000217180313          0000000000000094233P000000000000007408000103117  000000000000000000000000000000000000000000000000000000000000000000000000000000000000007408000000000000000000000000000   180313                 0000000000                                                                  000240
1024236544500011500000020044700948209                         000000000000009433010000000000000000000000000217180313          00000000000000943301000000000000008379023701400  000000000000000000000000000000000000000000000000000000000000000000000000000000000000008379000000000000000000000000000   180313                 0000000000                                                                  000241
1024236544500011500000020044700948209                         000000000000009433440000000000000000000000000217180313          00000000000000943344000000000000006019234100358  000000000000000000000000000000000000000000000000000000000000000000000000000000000000006019200000000000000000000000000   180313                 0000000000                                                                  000242
1024236544500011500000020044700948209                         000000000000009435300000000000000000000000000217180313          00000000000000943530000000000000005593000109012  000000000000000000000000000000000000000000000000000000000000000000000000000000000000005593000000000000000000000000000   180313                 0000000000                                                                  000243
1024236544500011500000020044700948209                         000000000000009435490000000000000000000000000217180313          00000000000000943549000000000000005593000109012  000000000000000000000000000000000000000000000000000000000000000000000000000000000000005593000000000000000000000000000   180313                 0000000000                                                                  000244
1024236544500011500000020044700948209                         000000000000009436620000000000000000000000000217180313          00000000000000943662000000000000006608034108691  000000000000000000000000000000000000000000000000000000000000000000000000000000000000006608000000000000000000000000000   180313                 0000000000                                                                  000245
1024236544500011500000020044700948209                         000000000000009437190000000000000000000000000217180313          00000000000000943719000000000000010080023702722  000000000000000000000000000000000000000000000000000000000000000000000000000000000000010080000000000000000000000000000   180313                 0000000000                                                                  000246
1024236544500011500000020044700948209                         000000000000009438590000000000000000000000000217180313          00000000000000943859000000000000006397310403024  000000000000000000000000000000000000000000000000000000000000000000000000000000000000006397300000000000000000000000000   180313                 0000000000                                                                  000247
1024236544500011500000020044700948209                         000000000000009440220000000000000000000000000217180313          00000000000000944022000000000000002060723702580  000000000000000000000000000000000000000000000000000000000000000000000000000000000000002060700000000000000000000000000   180313                 0000000000                                                                  000248
1024236544500011500000020044700948209                         000000000000009440300000000000000000000000000217180313          00000000000000944030000000000000006482003301099  000000000000000000000000000000000000000000000000000000000000000000000000000000000000006482000000000000000000000000000   180313                 0000000000                                                                  000249
